FFI61610518ABCEDEFG Elementary                     20200707abcdef@gmail.com                                                                                   2504779616School Contact                            
SRM000000000001          Nader                    Nickolas                                          Ryan                     Jacques                                           19720820M                09                          V8N1H8
SRM000000000002          Stamm                    Richmond                                          Kuhlman                  Gregory                                           19860428M                GA                          V8N1B4
SRM000000000003          Fritsch                  Yvonne                                            White                    Jules                                             19871209F                06                          V8N0A9
SRM000000000004          Hickle                   Arnold                                            Huels                    Junius                                            19930411F                09                          V8N1C4
SRM000000000005          Bartell                  Dedrick                                           O'Hara                   Xavier                                            19711011F                03                          V8N1B9
SRM000000000006          Vandervort               Eunice                                            Walker                   Florencio                                         19690809M                03                          V8N1G6
SRM000000000007          Graham                   Piper                                             Klein                    Bernie                                            19960828M                10                          V8N1G5
SRM000000000008          Russel                   Mathilde                                          Mitchell                 Garry                                             19701205F                08                          V8N1B6
SRM000000000009          Hettinger                Watson                                            Volkman                  Chelsie                                           19610707M                11                          V8N1A1
SRM000000000010          Satterfield              Kyla                                              Williamson               Justen                                            19650327M                02                          V8N1A2
SRM000000000011          Beatty                   Melvin                                            Lockman                  Jeramy                                            19690330M                03                          V8N1G8
SRM000000000012          Bauch                    Percival                                          Klein                    Laurianne                                         19780501M                11                          V8N1G2
SRM000000000013          Cassin                   Joesph                                            Hyatt                    Jaycee                                            19740930M                01                          V8N1L2
SRM000000000014          Crist                    Alexie                                            Flatley                  Eladio                                            19780308F                09                          V8N0A1
SRM000000000015          Collier                  Reece                                             Cummings                 Lesley                                            19910313M                SU                          V8N1A6
SRM000000000016          Cronin                   Christop                                          Gutmann                  Clarabelle                                        19550901M                01                          V8N1E2
SRM000000000017          Prosacco                 Theodore                                          Krajcik                  Velda                                             19861025M                12                          V8N0B4
SRM000000000018          Luettgen                 Ressie                                            Hintz                    Samara                                            19830520F                08                          V8N1A1
SRM000000000019          Hilll                    Cleta                                             Brown                    Gregorio                                          20001231F                SU                          V8N1E6
SRM000000000020          McDermott                Marjolaine                                        Dicki                    Emmanuelle                                        19880411M                07                          V8N1A3
SRM000000000021          Hand                     Uriel                                             Hegmann                  Lurline                                           20010219F                06                          V8N0A7
SRM000000000022          Morissette               Lavonne                                           Sporer                   Rubye                                             19961020F                09                          V8N1C8
SRM000000000023          Schneider                Jamar                                             Armstrong                Maddison                                          19681117F                10                          V8N0A1
SRM000000000024          Sporer                   Gertrude                                          Volkman                  Kaitlyn                                           19840131M                10                          V8N1C6
SRM000000000025          Towne                    Elenor                                            Fisher                   Danyka                                            19991016F                09                          V8N1H5
SRM000000000026          O'Keefe                  Jazmin                                            Swaniawski               Nico                                              19920110M                03                          V8N1C9
SRM000000000027          Tremblay                 Amaya                                             Schultz                  Jayce                                             19830908F                03                          V8N1B8
SRM000000000028          Lakin                    Madisen                                           Wiza                     Levi                                              19740523M                10                          V8N0A7
SRM000000000029          Reichel                  Shanon                                            Osinski                  Dallas                                            19900616M                06                          V8N0A5
SRM000000000030          Hills                    Libby                                             Gulgowski                Tomas                                             19920825M                11                          V8N0B3
SRM000000000031          Jacobson                 Wilfredo                                          Mann                     Clement                                           19951005M                05                          V8N0B6
SRM000000000032          Lang                     Deron                                             Bednar                   Corine                                            19941003M                11                          V8N1C6
SRM000000000033          Armstrong                Luz                                               Hills                    Sofia                                             19711209F                04                          V8N1H1
SRM000000000034          Yundt                    Josefa                                            Wintheiser               Lila                                              19890918M                11                          V8N1K3
SRM000000000035          Heaney                   Edwardo                                           Nienow                   Ariel                                             19660306F                05                          V8N1A1
SRM000000000036          Halvorson                Aida                                              Abbott                   Jonathan                                          19780529M                08                          V8N1C1
SRM000000000037          Wisozk                   Talia                                             Armstrong                Columbus                                          19900404F                12                          V8N1B3
SRM000000000038          O'Connell                Serena                                            King                     Sadye                                             19871207F                05                          V8N0A5
SRM000000000039          Jerde                    Brandy                                            Schamberger              Gaetano                                           19650106M                SU                          V8N0B4
SRM000000000040          Hessel                   Samanta                                           Aufderhar                Deanna                                            19670607F                08                          V8N1C6
SRM000000000041          Witting                  Oran                                              O'Kon                    Letitia                                           19591230F                09                          V8N1B8
SRM000000000042          Hirthe                   Favian                                            Kerluke                  Angelica                                          19730714M                GA                          V8N1A3
SRM000000000043          O'Conner                 Rachael                                           Walker                   Chad                                              19591117F                07                          V8N1K3
SRM000000000044          Waelchi                  Khalil                                            McKenzie                 Edwina                                            19580204F                04                          V8N1A9
SRM000000000045          Robel                    Jarrell                                           Hamill                   Shana                                             19810417F                GA                          V8N1J2
SRM000000000046          Koch                     Rhiannon                                          Hansen                   Taurean                                           19710103M                12                          V8N0B5
SRM000000000047          Casper                   Gerry                                             Welch                    Lucas                                             19790330M                03                          V8N1H8
SRM000000000048          Sauer                    Evelyn                                            Bernier                  Mckayla                                           19770115F                02                          V8N1H1
SRM000000000049          Von                      Rico                                              Nikolaus                 Franz                                             19930914M                08                          V8N1B9
SRM000000000050          Bosco                    Toby                                              Cronin                   Pinkie                                            19920215M                GA                          V8N1E2
SRM000000000051          Christiansen             Ashleigh                                          Bartell                  Nellie                                            19760506F                08                          V8N1A3
SRM000000000052          Yundt                    Franz                                             Murazik                  Samantha                                          20020225F                05                          V8N1J3
SRM000000000053          Corwin                   Bette                                             Quigley                  Barrett                                           19781124F                06                          V8N1K1
SRM000000000054          Predovic                 Willard                                           Kemmer                   Abigayle                                          19860208F                GA                          V8N1A5
SRM000000000055          Weissnat                 Maryjane                                          Hand                     Linnie                                            19950603F                10                          V8N1B6
SRM000000000056          Bogan                    Otto                                              Boehm                    Amparo                                            19570428F                02                          V8N1K4
SRM000000000057          Murazik                  Khalil                                            Schmeler                 Rosetta                                           19550921F                03                          V8N1B6
SRM000000000058          Becker                   Raul                                              Anderson                 Edward                                            19620323F                10                          V8N1A6
SRM000000000059          Stanton                  Antonetta                                         Nienow                   Joe                                               19590520F                03                          V8N1B9
SRM000000000060          Denesik                  Alessandro                                        Zboncak                  Linnea                                            19730519M                06                          V8N1C8
SRM000000000061          Wisozk                   Reymundo                                          Casper                   Clotilde                                          19961214F                04                          V8N1C1
SRM000000000062          Huel                     Elinore                                           Roberts                  Baylee                                            19850421F                03                          V8N1H3
SRM000000000063          Bergnaum                 Audreanne                                         Jacobs                   Hyman                                             19960612M                02                          V8N1H6
SRM000000000064          Schultz                  Angelina                                          Reichert                 Emmett                                            19900117F                05                          V8N1K3
SRM000000000065          Krajcik                  Rosella                                           VonRueden                Kattie                                            19791031M                11                          V8N1E9
SRM000000000066          Goldner                  Maribel                                           Hermann                  Dock                                              19751126F                09                          V8N1A1
SRM000000000067          Doyle                    Ruthe                                             Boyle                    Alene                                             19580615F                03                          V8N1A6
SRM000000000068          Rohan                    Gregorio                                          Becker                   Braulio                                           19681110F                08                          V8N1E5
SRM000000000069          Hagenes                  Forrest                                           Rogahn                   Bennett                                           19941001F                09                          V8N1J3
SRM000000000070          Emard                    Andre                                             Pacocha                  Katheryn                                          19871229F                03                          V8N1J6
SRM000000000071          Reichel                  Estella                                           O'Reilly                 Antonetta                                         19671210F                09                          V8N0B4
SRM000000000072          Leannon                  Tom                                               Hand                     Kailyn                                            19770515F                10                          V8N1B6
SRM000000000073          Nicolas                  Alexandria                                        Hodkiewicz               Shea                                              19910924M                09                          V8N1J3
SRM000000000074          Spinka                   Kurt                                              Sauer                    Greyson                                           19870828F                09                          V8N1B3
SRM000000000075          Mueller                  Sedrick                                           McCullough               Uriah                                             19820614F                05                          V8N1A9
SRM000000000076          Collins                  Aubrey                                            Rutherford               Elyssa                                            19590314F                GA                          V8N0A9
SRM000000000077          Olson                    Stuart                                            Ward                     Pearline                                          19850605M                SU                          V8N1J2
SRM000000000078          Farrell                  Alexandra                                         Boyer                    Andreanne                                         19770808F                01                          V8N1B9
SRM000000000079          Sporer                   Arthur                                            Emard                    Joanne                                            19631029F                03                          V8N1J1
SRM000000000080          McGlynn                  Antonetta                                         Hilll                    Elizabeth                                         20010425M                09                          V8N0B7
SRM000000000081          Nienow                   Pamela                                            Olson                    Ardella                                           19700329F                04                          V8N1J4
SRM000000000082          Considine                Samson                                            Kozey                    Merl                                              19870328F                07                          V8N1E8
SRM000000000083          Kuphal                   Reilly                                            Jacobs                   Lauriane                                          19741017F                10                          V8N1J4
SRM000000000084          Grant                    Grover                                            McDermott                Grayce                                            19990909F                10                          V8N1G3
SRM000000000085          Terry                    Bartholome                                        Christiansen             Alda                                              20000207F                03                          V8N1J8
SRM000000000086          Hilpert                  Abbie                                             Reynolds                 Jayme                                             19960308M                03                          V8N1A7
SRM000000000087          Parker                   Scotty                                            Dach                     Devyn                                             19580215F                06                          V8N1B8
SRM000000000088          Cronin                   Marley                                            Wisoky                   Oswaldo                                           19871026M                03                          V8N1E3
SRM000000000089          Wunsch                   Cielo                                             Daugherty                Camila                                            19680322M                09                          V8N0A8
SRM000000000090          McKenzie                 Miller                                            D'Amore                  Stephon                                           19560329F                04                          V8N1A4
SRM000000000091          Weimann                  Braden                                            Sipes                    Morris                                            19710504M                12                          V8N0A6
SRM000000000092          Ferry                    Karianne                                          Boyle                    Darryl                                            19851011M                08                          V8N0A7
SRM000000000093          Emard                    Ward                                              Shanahan                 Jordi                                             19800729M                09                          V8N1B7
SRM000000000094          Glover                   Herman                                            McGlynn                  Gia                                               19911104F                08                          V8N1H3
SRM000000000095          Lakin                    Orin                                              Howell                   Nettie                                            20000823M                12                          V8N1E8
SRM000000000096          Borer                    Lupe                                              Satterfield              Loy                                               19660402M                07                          V8N1E2
SRM000000000097          Mertz                    Ted                                               Jacobson                 Daren                                             19770408M                02                          V8N1B9
SRM000000000098          Erdman                   Abigayle                                          Harvey                   Baby                                              19740321F                05                          V8N1H1
SRM000000000099          Wiza                     Howard                                            Mills                    Telly                                             19611030F                SU                          V8N1K2
SRM000000000100          Trantow                  Theodora                                          Heidenreich              Kaelyn                                            19870922F                08                          V8N0B7
SRM000000000101          Schmitt                  Jessika                                           Mann                     Easton                                            19661103M                07                          V8N1E5
SRM000000000102          Ebert                    Francesco                                         Hirthe                   Krista                                            19980425M                07                          V8N1E9
SRM000000000103          Balistreri               Lucius                                            Quigley                  Russel                                            19990411F                03                          V8N0A9
SRM000000000104          Abbott                   Melisa                                            Kuvalis                  Hayley                                            19620716F                10                          V8N1A1
SRM000000000105          Nikolaus                 Keegan                                            Gislason                 Marjory                                           19660715F                02                          V8N1A4
SRM000000000106          Ratke                    Korbin                                            Nader                    Lizeth                                            20020704F                06                          V8N1G2
SRM000000000107          Dibbert                  Garry                                             Gorczany                 Lia                                               19590125M                SU                          V8N1J1
SRM000000000108          Rath                     Abbigail                                          Harris                   Electa                                            19630811F                08                          V8N1H8
SRM000000000109          Hackett                  Genoveva                                          Okuneva                  Caleigh                                           19790416F                SU                          V8N1K8
SRM000000000110          Becker                   Dane                                              Rowe                     Conner                                            20000116M                SU                          V8N1K9
SRM000000000111          Upton                    Marcelle                                          Lind                     Dahlia                                            19860630M                11                          V8N1L3
SRM000000000112          Stanton                  Elenor                                            Kris                     Marianna                                          19951209F                08                          V8N1C5
SRM000000000113          Reynolds                 Mateo                                             Emmerich                 Delores                                           19960329M                GA                          V8N1G8
SRM000000000114          Schamberger              Winston                                           Buckridge                Jayme                                             19820119M                05                          V8N1K2
SRM000000000115          Pollich                  Enrique                                           Lebsack                  Golda                                             19930115F                05                          V8N1J6
SRM000000000116          Towne                    Rahsaan                                           Hane                     Mikel                                             19550325F                01                          V8N1L1
SRM000000000117          Daniel                   Trycia                                            O'Kon                    Stanford                                          19771022F                12                          V8N0A9
SRM000000000118          Volkman                  Kendall                                           Konopelski               Herta                                             20000609M                10                          V8N1C2
SRM000000000119          Bashirian                Anthony                                           McGlynn                  Schuyler                                          19880319M                SU                          V8N1B5
SRM000000000120          Marks                    Alisa                                             Veum                     Ansley                                            19760616F                06                          V8N0B7
SRM000000000121          Schneider                Bret                                              Upton                    Hector                                            20020818F                02                          V8N1E6
SRM000000000122          Zulauf                   Sydnie                                            Kirlin                   Suzanne                                           19930723M                06                          V8N0B7
SRM000000000123          Koch                     Athena                                            Stiedemann               Edyth                                             19870514M                09                          V8N0A5
SRM000000000124          Smith                    Larry                                             O'Reilly                 Margarett                                         19850813F                12                          V8N1E3
SRM000000000125          Kunde                    Lydia                                             Bode                     Reese                                             19961226F                03                          V8N0B7
SRM000000000126          Auer                     Kolby                                             Christiansen             Oliver                                            19640427M                12                          V8N1H1
SRM000000000127          Bernier                  Brenda                                            Frami                    Christina                                         19690828M                09                          V8N1K9
SRM000000000128          Walsh                    Eulah                                             Douglas                  Nelda                                             19700326M                10                          V8N1C5
SRM000000000129          Sawayn                   Madaline                                          Kiehn                    Asha                                              19900504F                07                          V8N0B1
SRM000000000130          Olson                    Rhianna                                           Wyman                    Arvel                                             19580406F                SU                          V8N1G3
SRM000000000131          Ruecker                  Erna                                              Price                    Edgardo                                           19730604F                03                          V8N1C6
SRM000000000132          Hackett                  Aliya                                             Skiles                   Emilia                                            19550829M                03                          V8N1J2
SRM000000000133          Mayert                   Afton                                             Purdy                    Angelo                                            19830623F                08                          V8N0B2
SRM000000000134          Hodkiewicz               Jacynthe                                          Beahan                   Favian                                            19771023M                06                          V8N1G7
SRM000000000135          Rippin                   Rhianna                                           Marks                    Delphia                                           20021126F                07                          V8N1B9
SRM000000000136          Ziemann                  Demarco                                           Shields                  Eliseo                                            19791205F                SU                          V8N1B7
SRM000000000137          Hills                    Halle                                             Rolfson                  Westley                                           19710408F                04                          V8N1G4
SRM000000000138          Wiegand                  Candace                                           Rau                      Kailee                                            19860624F                02                          V8N1A7
SRM000000000139          Shields                  Brando                                            Aufderhar                Ceasar                                            19670204F                10                          V8N1C8
SRM000000000140          Price                    Armand                                            Dicki                    Dangelo                                           20020411M                08                          V8N1E5
SRM000000000141          Zieme                    Mireya                                            Wolff                    Zion                                              19620801F                01                          V8N1K5
SRM000000000142          Marks                    Armando                                           DuBuque                  Jamel                                             19770117M                08                          V8N1K2
SRM000000000143          Schamberger              Hester                                            Nikolaus                 Raul                                              19990213F                01                          V8N1J8
SRM000000000144          Botsford                 Ebony                                             Cormier                  Kristy                                            19810619F                03                          V8N1K8
SRM000000000145          Schneider                Lucio                                             Wolf                     Elenora                                           20020930F                07                          V8N1B9
SRM000000000146          Considine                Darren                                            Wunsch                   Raegan                                            19851109M                02                          V8N1B6
SRM000000000147          Upton                    Sabrina                                           Wuckert                  Sally                                             19590316M                SU                          V8N1B6
SRM000000000148          Prosacco                 Werner                                            Wyman                    William                                           19670727M                SU                          V8N1C3
SRM000000000149          Kilback                  Turner                                            Feeney                   Shane                                             19720202M                07                          V8N1L1
SRM000000000150          Mante                    Norwood                                           Tillman                  Alicia                                            19760702M                02                          V8N1K1
SRM000000000151          Howe                     Yesenia                                           Langosh                  Terrance                                          19840914F                02                          V8N0A2
SRM000000000152          Marks                    Laverna                                           Labadie                  Estell                                            19601217M                05                          V8N0B5
SRM000000000153          Prohaska                 Donna                                             Torphy                   Jessy                                             19720311M                05                          V8N1G3
SRM000000000154          Goodwin                  Susan                                             Strosin                  Ayla                                              19670411M                10                          V8N1E5
SRM000000000155          Collins                  Lilla                                             Schaden                  Treva                                             19861119M                08                          V8N1J4
SRM000000000156          Thiel                    Hellen                                            Jast                     Jess                                              19771114F                08                          V8N1J3
SRM000000000157          Mann                     Laisha                                            Sipes                    Florine                                           19920628M                GA                          V8N0A2
SRM000000000158          Dibbert                  Josefina                                          Gislason                 Miguel                                            19611010F                07                          V8N1A2
SRM000000000159          Kuvalis                  Alford                                            Swift                    Malika                                            19870713F                11                          V8N1J5
SRM000000000160          Homenick                 Maia                                              Blick                    Kip                                               19831007F                05                          V8N0B4
SRM000000000161          Luettgen                 Paxton                                            Mueller                  Chandler                                          19860620F                08                          V8N1C5
SRM000000000162          Lakin                    Marcella                                          Morar                    Maynard                                           19940818M                12                          V8N0B2
SRM000000000163          Hammes                   Andreane                                          McClure                  Norris                                            19930112F                10                          V8N1E8
SRM000000000164          Oberbrunner              Norval                                            Bauch                    Corene                                            19960206F                12                          V8N1J3
SRM000000000165          Kutch                    Elmore                                            Ortiz                    Meredith                                          19850626M                11                          V8N1J4
SRM000000000166          Kuphal                   Leopoldo                                          Mayert                   Nils                                              19980203M                02                          V8N1C2
SRM000000000167          Hagenes                  Javier                                            Gleichner                Russ                                              19880223F                05                          V8N1G5
SRM000000000168          Blick                    Kassandra                                         Hane                     Nestor                                            20021118F                04                          V8N1B7
SRM000000000169          Schulist                 Jon                                               Wisoky                   Coleman                                           19600525F                10                          V8N1E9
SRM000000000170          Prosacco                 Julie                                             Jast                     Gabriel                                           19700720F                11                          V8N1H4
SRM000000000171          Jacobs                   Dallin                                            Hane                     Clara                                             19840517F                11                          V8N0A5
SRM000000000172          Champlin                 Arnulfo                                           Cummerata                Leif                                              19651107M                05                          V8N1B5
SRM000000000173          Collier                  Destini                                           Quigley                  Lelia                                             20010129M                04                          V8N1C6
SRM000000000174          Hansen                   Rosalee                                           Cummings                 Alycia                                            19770401M                11                          V8N1H1
SRM000000000175          Towne                    Kamron                                            Bogan                    Bertram                                           20020903M                10                          V8N1K9
SRM000000000176          Simonis                  Jennings                                          Pfeffer                  Rollin                                            19851210M                02                          V8N1G2
SRM000000000177          Predovic                 Josiane                                           Ondricka                 Madisen                                           19990107M                05                          V8N1B5
SRM000000000178          Hansen                   Kolby                                             Zemlak                   Sam                                               19930722M                05                          V8N0A9
SRM000000000179          Deckow                   Kevin                                             Orn                      Mary                                              20020203F                08                          V8N1C3
SRM000000000180          Gottlieb                 Evalyn                                            Romaguera                America                                           19750428F                SU                          V8N1C4
SRM000000000181          Gerhold                  Carmel                                            Brakus                   Emmet                                             19600102F                09                          V8N1G7
SRM000000000182          Kessler                  Leta                                              McClure                  Erin                                              19820318M                01                          V8N1B5
SRM000000000183          Langworth                Anthony                                           Schowalter               Laurie                                            19980324F                SU                          V8N1C4
SRM000000000184          O'Kon                    Suzanne                                           Gaylord                  Carlotta                                          20011222F                07                          V8N1J7
SRM000000000185          Gleason                  Juliana                                           Koch                     Donald                                            19601127M                12                          V8N1A4
SRM000000000186          Murazik                  Eldred                                            Goodwin                  Misty                                             19670103M                12                          V8N1A7
SRM000000000187          Effertz                  Royal                                             Stehr                    Jerrod                                            19720523F                05                          V8N1A3
SRM000000000188          Balistreri               Palma                                             Koss                     Emma                                              19890506F                12                          V8N1G9
SRM000000000189          Wisozk                   Helmer                                            Daniel                   Garrett                                           19971118M                11                          V8N1C3
SRM000000000190          Reichert                 Sandy                                             Abbott                   Cassie                                            19910410M                06                          V8N0A7
SRM000000000191          Berge                    Kenny                                             Kilback                  Kelton                                            19710519M                03                          V8N1K6
SRM000000000192          Fay                      Daija                                             Stanton                  Albina                                            19701011F                06                          V8N1B5
SRM000000000193          Durgan                   Crystal                                           Pouros                   Heidi                                             19861010F                07                          V8N1L2
SRM000000000194          Cronin                   Keara                                             Rohan                    Ezequiel                                          19740913M                06                          V8N1B4
SRM000000000195          Keebler                  Allen                                             Labadie                  Deron                                             19780608F                08                          V8N1G8
SRM000000000196          Oberbrunner              Kay                                               Kovacek                  Kelly                                             19850614M                01                          V8N1J7
SRM000000000197          Brown                    Reyes                                             Murphy                   Jeremy                                            19620717M                SU                          V8N1J3
SRM000000000198          Hane                     Gilbert                                           Daniel                   Adella                                            19910413M                07                          V8N0A2
SRM000000000199          Kuhlman                  Jerrold                                           Goodwin                  Adalberto                                         19620612M                SU                          V8N1C1
SRM000000000200          Ferry                    Gracie                                            Boehm                    Brittany                                          19990802F                02                          V8N1L1
SRM000000000201          Fay                      Dave                                              Tromp                    Raphaelle                                         19610130M                05                          V8N1K9
SRM000000000202          Conn                     Shaylee                                           Labadie                  Baron                                             19720127M                02                          V8N1C1
SRM000000000203          Graham                   Ardith                                            Robel                    Lindsay                                           19960728F                GA                          V8N1G1
SRM000000000204          Fisher                   Letitia                                           Terry                    Blaze                                             19770206F                11                          V8N1G8
SRM000000000205          Waters                   Crystel                                           Daniel                   Charles                                           19620620M                10                          V8N1L2
SRM000000000206          Gleason                  Haylie                                            Schuster                 Wilfred                                           19701207F                07                          V8N1E6
SRM000000000207          Bayer                    Cornell                                           McClure                  Tobin                                             19931228M                03                          V8N1H4
SRM000000000208          MacGyver                 Titus                                             Morar                    Dock                                              19800511M                GA                          V8N1B5
SRM000000000209          Ullrich                  Cassie                                            Ankunding                Weston                                            19711014F                12                          V8N1A6
SRM000000000210          Hudson                   Damian                                            Koch                     Trycia                                            19980223F                08                          V8N1J6
SRM000000000211          Rosenbaum                Christophe                                        Wiza                     Karli                                             19721215M                02                          V8N1H6
SRM000000000212          Shields                  Zoey                                              Schaefer                 Albina                                            19660419M                08                          V8N1H2
SRM000000000213          Heaney                   Libby                                             Lesch                    Florida                                           19970124M                05                          V8N1E6
SRM000000000214          Schuster                 Juliet                                            Jakubowski               Eden                                              19820818F                10                          V8N1H9
SRM000000000215          Mayert                   Clementine                                        Terry                    Elisha                                            19750410F                08                          V8N0A3
SRM000000000216          Russel                   Zelma                                             Swift                    Marina                                            19750811M                02                          V8N1K4
SRM000000000217          Wilderman                Tomas                                             Ziemann                  Derek                                             19750416M                06                          V8N1K6
SRM000000000218          Cronin                   Kim                                               Beatty                   Israel                                            19930501M                04                          V8N0B1
SRM000000000219          Abernathy                Nickolas                                          Cummings                 Armani                                            19770823M                10                          V8N0B5
SRM000000000220          Predovic                 Bonita                                            West                     Torrey                                            19960831M                GA                          V8N1C5
SRM000000000221          Reichel                  Mason                                             Hudson                   Coby                                              19560328F                GA                          V8N1J9
SRM000000000222          Rempel                   Fred                                              Doyle                    Tessie                                            19611124F                10                          V8N0B7
SRM000000000223          Goodwin                  Nicole                                            Harris                   Verda                                             19801123M                12                          V8N1G7
SRM000000000224          Glover                   Alvera                                            Casper                   Eliezer                                           19780306F                04                          V8N1K2
SRM000000000225          Lueilwitz                Dortha                                            Lueilwitz                Vidal                                             19671214F                07                          V8N1A1
SRM000000000226          Gibson                   Genevieve                                         Beier                    Annamae                                           20020313F                10                          V8N0A9
SRM000000000227          Schaden                  Jovani                                            Cruickshank              Davonte                                           19920131F                01                          V8N1E3
SRM000000000228          Paucek                   Michel                                            Torphy                   Rubye                                             19971023F                10                          V8N1G9
SRM000000000229          Rempel                   Karley                                            Hand                     Arne                                              19660601F                03                          V8N1K6
SRM000000000230          Veum                     Austen                                            Boyle                    Haskell                                           19720709F                01                          V8N1G7
SRM000000000231          Feest                    Anissa                                            Olson                    Krystel                                           19990726M                09                          V8N1G8
SRM000000000232          Beier                    Darrion                                           Rice                     Antonetta                                         19871105F                12                          V8N1B4
SRM000000000233          Langworth                Eunice                                            Gleichner                Torey                                             19680710F                GA                          V8N1E9
SRM000000000234          Willms                   Marisol                                           Fisher                   Domenico                                          19860617F                10                          V8N1K9
SRM000000000235          Price                    Eliezer                                           Murray                   Wava                                              19770602F                08                          V8N1G4
SRM000000000236          Fadel                    Kallie                                            Howe                     Herminia                                          19590619M                03                          V8N1H2
SRM000000000237          Labadie                  Alek                                              Okuneva                  Millie                                            19671221M                03                          V8N1A7
SRM000000000238          Batz                     Stanford                                          Boehm                    June                                              19660721F                12                          V8N1B7
SRM000000000239          Rau                      Kay                                               Wiza                     Emmalee                                           19580520M                12                          V8N1H8
SRM000000000240          Beahan                   Waldo                                             Macejkovic               Janessa                                           19690330M                02                          V8N1E8
SRM000000000241          Spencer                  Henderson                                         Greenholt                Timothy                                           19691205M                07                          V8N1J2
SRM000000000242          Reynolds                 Carlee                                            Champlin                 Kristina                                          19810803F                11                          V8N1G1
SRM000000000243          Davis                    Vance                                             Stracke                  Noelia                                            20000518F                GA                          V8N0A4
SRM000000000244          Hilll                    Ned                                               Corwin                   Santa                                             19780223F                09                          V8N0A3
SRM000000000245          Gislason                 Baylee                                            Toy                      Alysa                                             19830421M                07                          V8N0A1
SRM000000000246          Kuvalis                  Malinda                                           Hagenes                  Halle                                             19730626M                GA                          V8N1H2
SRM000000000247          Flatley                  Kareem                                            Johnston                 Abdul                                             19910210M                SU                          V8N1G8
SRM000000000248          Koelpin                  Mallory                                           Beier                    Maeve                                             19940910F                SU                          V8N1B5
SRM000000000249          Rodriguez                Clifford                                          Legros                   Madelynn                                          19711109M                04                          V8N1A3
SRM000000000250          Lakin                    Karlie                                            Schmeler                 Garrick                                           19950609M                GA                          V8N1E3
SRM000000000251          Yundt                    Lorenza                                           Conroy                   Francisco                                         19850327M                10                          V8N1L1
SRM000000000252          Yundt                    Estell                                            Langworth                Murray                                            19610701M                01                          V8N0B1
SRM000000000253          Bashirian                Jane                                              Cassin                   Alexie                                            20020528M                08                          V8N1C1
SRM000000000254          Kassulke                 Tania                                             Kihn                     Faustino                                          19970521M                04                          V8N1H1
SRM000000000255          Gibson                   Maxime                                            Effertz                  Taurean                                           19661229F                12                          V8N1B4
SRM000000000256          Carter                   Paris                                             Runolfsson               Emory                                             19881207F                10                          V8N0A6
SRM000000000257          Schuster                 Breana                                            Mante                    Rickey                                            19660721M                01                          V8N1G5
SRM000000000258          Hane                     Jazlyn                                            Hermann                  Kaleigh                                           19870324M                03                          V8N1C6
SRM000000000259          Nolan                    Maxine                                            Hansen                   Desiree                                           19670312F                GA                          V8N1J1
SRM000000000260          Tremblay                 Charity                                           Baumbach                 Lola                                              19591209F                06                          V8N0B7
SRM000000000261          Murphy                   Ewell                                             Fadel                    Sigmund                                           19561129F                01                          V8N0B6
SRM000000000262          Lindgren                 Doug                                              Gottlieb                 Brenda                                            19810503F                12                          V8N1B5
SRM000000000263          Muller                   Forrest                                           Moore                    Eliseo                                            19811205F                SU                          V8N1B3
SRM000000000264          Goodwin                  Shanie                                            Brekke                   Hobart                                            19760528F                09                          V8N1H5
SRM000000000265          Zboncak                  Anita                                             Barton                   Donald                                            19980828F                06                          V8N1A9
SRM000000000266          Barrows                  Rosamond                                          Batz                     Polly                                             19650613M                07                          V8N1B8
SRM000000000267          Kerluke                  Hillary                                           Considine                Baby                                              20000613F                12                          V8N0A9
SRM000000000268          Thiel                    Constance                                         Parisian                 Norma                                             19550826M                01                          V8N1A6
SRM000000000269          Flatley                  Ashlynn                                           Wuckert                  Susana                                            19840215F                06                          V8N1H6
SRM000000000270          Pfannerstill             Levi                                              Lakin                    Stacy                                             19771105M                10                          V8N1H8
SRM000000000271          Rath                     Leatha                                            Brekke                   Myrtle                                            19610617M                06                          V8N1G4
SRM000000000272          Zemlak                   Marc                                              Schaden                  Yvette                                            19760507F                10                          V8N1J8
SRM000000000273          Conn                     Clay                                              Hauck                    Dina                                              19630313M                SU                          V8N0A3
SRM000000000274          Padberg                  Jeramy                                            Koepp                    Raymundo                                          19721207M                09                          V8N1K1
SRM000000000275          Hahn                     Virgil                                            Bode                     Rudy                                              19671004M                11                          V8N1J3
SRM000000000276          Howell                   Emmett                                            Homenick                 Catherine                                         19850323M                06                          V8N1E4
SRM000000000277          Yundt                    Koby                                              Towne                    Rosalind                                          19750625M                03                          V8N1J3
SRM000000000278          Koepp                    Michel                                            Fahey                    Tiffany                                           19921210M                12                          V8N0A1
SRM000000000279          Jones                    Doris                                             Langosh                  Gisselle                                          19900805F                11                          V8N1H1
SRM000000000280          O'Connell                Eden                                              Yundt                    Loraine                                           19961228M                01                          V8N1B9
SRM000000000281          McKenzie                 Vanessa                                           Ernser                   Jayda                                             20011017M                01                          V8N1A1
SRM000000000282          Becker                   Ivah                                              Simonis                  Courtney                                          19711101F                07                          V8N1E5
SRM000000000283          Schumm                   Icie                                              King                     Dejon                                             19741014F                11                          V8N0A4
SRM000000000284          Botsford                 Tevin                                             Boehm                    Murl                                              19990530F                06                          V8N1C4
SRM000000000285          Cremin                   Deshawn                                           Labadie                  Myrtie                                            19600909F                10                          V8N1L2
SRM000000000286          Kuphal                   Tyrese                                            Strosin                  Andreanne                                         19651015F                SU                          V8N1K2
SRM000000000287          Bauch                    Paolo                                             Runolfsson               Keegan                                            19850611M                08                          V8N1K9
SRM000000000288          Lindgren                 Carolanne                                         Nader                    Aisha                                             19850507M                02                          V8N1C4
SRM000000000289          Gerlach                  Freddie                                           Little                   Name                                              19860706M                01                          V8N1E3
SRM000000000290          Labadie                  Muhammad                                          Lang                     Kirsten                                           19820206F                GA                          V8N1A4
SRM000000000291          Heathcote                Walter                                            Zboncak                  Nathaniel                                         19951010F                08                          V8N1E5
SRM000000000292          Predovic                 Josiane                                           Hamill                   Dwight                                            19970729F                11                          V8N1E8
SRM000000000293          Shields                  Odessa                                            Nikolaus                 Constantin                                        19571212M                01                          V8N0B3
SRM000000000294          Lakin                    Itzel                                             Lang                     Dortha                                            19700502M                SU                          V8N0B5
SRM000000000295          Ferry                    Graciela                                          Bailey                   Darion                                            19970219M                SU                          V8N1H5
SRM000000000296          Johnston                 Jeremy                                            Bailey                   Toni                                              19700311M                09                          V8N1K4
SRM000000000297          Rutherford               Cornell                                           Moen                     Kellen                                            19810811M                SU                          V8N0A2
SRM000000000298          Satterfield              Veronica                                          Runolfsson               Jerald                                            19941224F                SU                          V8N1H2
SRM000000000299          Weissnat                 Garnet                                            Pfeffer                  Karine                                            19830620F                01                          V8N1J2
SRM000000000300          Friesen                  Hans                                              White                    Jamal                                             19900105F                08                          V8N1K8
SRM000000000301          Kovacek                  Meghan                                            Gibson                   Wilfred                                           19760218M                01                          V8N0A7
SRM000000000302          Yost                     Izaiah                                            Gibson                   Dolly                                             19730711F                07                          V8N0A8
SRM000000000303          Bartell                  Kris                                              Howell                   Carmella                                          20010204M                06                          V8N0B1
SRM000000000304          Bosco                    Lelia                                             O'Conner                 Amparo                                            19980104F                GA                          V8N1A6
SRM000000000305          Hills                    Dorothea                                          Littel                   Novella                                           19640520M                11                          V8N0A6
SRM000000000306          Thiel                    Reid                                              Effertz                  Doris                                             19960211F                SU                          V8N1J1
SRM000000000307          O'Reilly                 Breanna                                           Kris                     Sage                                              19720427F                SU                          V8N1E8
SRM000000000308          Bahringer                Luisa                                             Conn                     Aliya                                             19830428M                05                          V8N1B6
SRM000000000309          Blanda                   Kyleigh                                           Altenwerth               Donavon                                           20010821M                GA                          V8N1E5
SRM000000000310          Mertz                    Garett                                            Bartell                  Donald                                            19680414M                06                          V8N1A5
SRM000000000311          O'Kon                    Laney                                             Heller                   Kendall                                           19770119M                01                          V8N1J2
SRM000000000312          Pagac                    Daphnee                                           Farrell                  Geoffrey                                          19910601M                08                          V8N1H4
SRM000000000313          Welch                    Vaughn                                            Torphy                   Angelo                                            19851110M                11                          V8N0A7
SRM000000000314          Aufderhar                Candida                                           Daugherty                Yvette                                            19990310M                05                          V8N0A6
SRM000000000315          Goodwin                  Dameon                                            Lubowitz                 Arlene                                            19911006M                05                          V8N1A9
SRM000000000316          Bahringer                Sincere                                           Stokes                   Ezra                                              19781105M                GA                          V8N1J2
SRM000000000317          Collier                  Kay                                               Osinski                  Mara                                              19580425M                07                          V8N1A9
SRM000000000318          Connelly                 Bridget                                           Hilpert                  Daron                                             19830812M                11                          V8N1C6
SRM000000000319          Lehner                   Leon                                              Toy                      Alysha                                            19980905M                07                          V8N1H2
SRM000000000320          Prosacco                 Ruben                                             Braun                    Brandt                                            19820901F                02                          V8N1K1
SRM000000000321          Dach                     Blake                                             Howe                     Kiel                                              19590821M                05                          V8N1B8
SRM000000000322          Rosenbaum                Ernie                                             Abbott                   Willard                                           19700321F                01                          V8N1C4
SRM000000000323          Wiegand                  Hiram                                             Fisher                   Sven                                              19991219F                01                          V8N1H6
SRM000000000324          Ward                     Edythe                                            Ryan                     Jackson                                           19890217F                09                          V8N0A9
SRM000000000325          Bruen                    Genoveva                                          Auer                     Darian                                            19561125M                09                          V8N1G7
SRM000000000326          Watsica                  Daniella                                          Walsh                    Melvina                                           19830110F                05                          V8N1A6
SRM000000000327          Cole                     Alfred                                            Pfannerstill             Selmer                                            19960207M                06                          V8N1A5
SRM000000000328          Kuphal                   Isabelle                                          Bechtelar                Maryjane                                          20020525M                04                          V8N1L1
SRM000000000329          King                     Isabel                                            Casper                   Izaiah                                            19651004F                02                          V8N1L1
SRM000000000330          Bauch                    Esperanza                                         Crist                    Fleta                                             19881103M                03                          V8N1B8
SRM000000000331          Gerlach                  Margret                                           Thiel                    Eli                                               19801125F                06                          V8N1G9
SRM000000000332          Dickinson                Derek                                             Greenfelder              Rusty                                             19560329M                11                          V8N0A8
SRM000000000333          Schuster                 Simone                                            Runolfsson               Elwyn                                             19901012M                04                          V8N1K3
SRM000000000334          Fay                      Donald                                            Kunde                    Mary                                              19820509F                02                          V8N1E5
SRM000000000335          White                    Ryley                                             Nader                    Adolf                                             19971124M                01                          V8N0A1
SRM000000000336          Quigley                  Dianna                                            Schimmel                 Jevon                                             19781008M                10                          V8N0B1
SRM000000000337          Pagac                    Alison                                            Orn                      Ari                                               19900806M                03                          V8N1E2
SRM000000000338          Mills                    Teresa                                            Mitchell                 Mellie                                            19760301M                03                          V8N1J9
SRM000000000339          Nader                    Litzy                                             Boehm                    Gideon                                            19900531M                GA                          V8N1G2
SRM000000000340          McDermott                Turner                                            Lakin                    Leann                                             19760424M                07                          V8N0A5
SRM000000000341          Smith                    Sunny                                             Runolfsson               Dorothea                                          19850808M                03                          V8N1A7
SRM000000000342          Stokes                   Mozell                                            Kessler                  Jordyn                                            19580312F                09                          V8N1B8
SRM000000000343          Cruickshank              Cordell                                           Ullrich                  Jamie                                             19920629M                04                          V8N1C5
SRM000000000344          Rice                     Santiago                                          Farrell                  Letha                                             19690901F                06                          V8N1B6
SRM000000000345          Hansen                   Barton                                            Heidenreich              Daija                                             19620706F                06                          V8N1H6
SRM000000000346          Farrell                  Annalise                                          Rogahn                   Braulio                                           20000524M                01                          V8N1J9
SRM000000000347          Johnson                  Retha                                             Oberbrunner              Ludwig                                            19550122F                SU                          V8N1H4
SRM000000000348          Casper                   Ryan                                              Casper                   Clotilde                                          19840908F                09                          V8N1C2
SRM000000000349          Bartoletti               Kamryn                                            Sanford                  Maeve                                             19730118F                01                          V8N1K5
SRM000000000350          Dickens                  Olaf                                              Hessel                   Nicholaus                                         19921212M                06                          V8N1A8
SRM000000000351          Morissette               Alvis                                             Stark                    Chauncey                                          19930911F                12                          V8N1A2
SRM000000000352          Trantow                  Alek                                              Flatley                  Esther                                            20001103M                08                          V8N1H7
SRM000000000353          Rau                      Kiera                                             Grimes                   Pansy                                             19791122F                11                          V8N1E3
SRM000000000354          Greenholt                Morris                                            Denesik                  Dora                                              20010422M                03                          V8N1K9
SRM000000000355          Balistreri               Gianni                                            Wiegand                  Hallie                                            19700604M                11                          V8N1J7
SRM000000000356          Kuhlman                  Winona                                            Trantow                  Angel                                             19610625F                03                          V8N1E8
SRM000000000357          Gulgowski                Eleonore                                          Medhurst                 Tamia                                             19580203M                09                          V8N0B5
SRM000000000358          Littel                   Eugene                                            Stracke                  Toy                                               19960324M                SU                          V8N1H9
SRM000000000359          Corwin                   Hudson                                            Jones                    Susanna                                           19940404M                10                          V8N1J3
SRM000000000360          Langosh                  Wilson                                            Ryan                     Zackery                                           19570225M                03                          V8N1C1
SRM000000000361          Torphy                   Demetris                                          Kirlin                   Gudrun                                            19600131F                12                          V8N1A8
SRM000000000362          Predovic                 Darby                                             Shanahan                 Emilie                                            19630110M                07                          V8N0A7
SRM000000000363          Hickle                   Darrion                                           Schmeler                 Stephen                                           19820510F                04                          V8N1G3
SRM000000000364          Wolff                    Allison                                           Gaylord                  Miller                                            20010529F                01                          V8N1H8
SRM000000000365          Towne                    Laura                                             Terry                    Liana                                             19670404F                GA                          V8N0A8
SRM000000000366          Hartmann                 Bart                                              Kuhn                     Audie                                             19930809M                09                          V8N1L2
SRM000000000367          Howe                     Bert                                              Dicki                    Mattie                                            19861207F                11                          V8N1C8
SRM000000000368          Waelchi                  Zackary                                           Hettinger                Zora                                              19601218F                03                          V8N1A2
SRM000000000369          Kuhn                     Giuseppe                                          Rau                      Verlie                                            19950110M                02                          V8N1K3
SRM000000000370          Tillman                  Liliane                                           Carroll                  Annamae                                           19811201F                03                          V8N1A8
SRM000000000371          Gislason                 Nasir                                             Wolf                     Daphney                                           19560118F                12                          V8N1C2
SRM000000000372          Stokes                   Alexis                                            Brakus                   Margarett                                         19680930M                11                          V8N1C6
SRM000000000373          Reynolds                 Shawna                                            Towne                    Adonis                                            19881030M                02                          V8N0B3
SRM000000000374          Kling                    Sigmund                                           Robel                    Jaylen                                            20010503M                01                          V8N1K5
SRM000000000375          Buckridge                Jace                                              Emmerich                 Alberta                                           19730818M                08                          V8N1B8
SRM000000000376          Kohler                   Crystal                                           Ryan                     Luis                                              19610910F                04                          V8N1H4
SRM000000000377          Breitenberg              Kamille                                           Bins                     Selina                                            19640217M                08                          V8N0B6
SRM000000000378          Hagenes                  Kari                                              Abbott                   Laron                                             19721008F                12                          V8N1C1
SRM000000000379          Stracke                  Savion                                            Terry                    Dalton                                            19640522F                06                          V8N1K4
SRM000000000380          Mayer                    Genoveva                                          Gaylord                  Sebastian                                         19610628M                GA                          V8N1A7
SRM000000000381          Cummerata                Alice                                             Gutmann                  Nathan                                            19660203M                11                          V8N0B6
SRM000000000382          Spencer                  Theresia                                          Mayer                    Jewell                                            19741109F                05                          V8N1G6
SRM000000000383          Daniel                   Gerhard                                           Hirthe                   Tessie                                            19670120F                05                          V8N1E2
SRM000000000384          Gleason                  Marcus                                            Klein                    Priscilla                                         20011205M                09                          V8N1H9
SRM000000000385          Dibbert                  Bo                                                Haag                     Sabina                                            19901117F                08                          V8N1E3
SRM000000000386          Steuber                  Mason                                             Moore                    Grayce                                            19901013F                02                          V8N1K7
SRM000000000387          Collier                  Cecilia                                           Brekke                   Brooks                                            19751026F                09                          V8N1B4
SRM000000000388          Fahey                    Nathen                                            Larson                   Aisha                                             19850406F                11                          V8N1J1
SRM000000000389          Kshlerin                 Joe                                               Ullrich                  Megane                                            19820203F                09                          V8N1E4
SRM000000000390          Bauch                    Lindsay                                           Batz                     Rickey                                            19560403F                12                          V8N1K5
SRM000000000391          King                     Alexys                                            Hyatt                    Jovani                                            19580721F                11                          V8N1B7
SRM000000000392          Paucek                   Gladyce                                           Nitzsche                 Abbey                                             19751011M                02                          V8N0A4
SRM000000000393          Champlin                 Clarabelle                                        Torphy                   Roslyn                                            19920809M                SU                          V8N1E4
SRM000000000394          Schultz                  Ransom                                            Schowalter               Marlen                                            19650113M                09                          V8N1K7
SRM000000000395          Dickinson                Elisabeth                                         Cummerata                Leann                                             19700118M                09                          V8N1J7
SRM000000000396          Kessler                  Maxine                                            Howe                     Madisen                                           19840529M                03                          V8N1J7
SRM000000000397          Kunde                    Bill                                              Schmitt                  Jailyn                                            19671221F                SU                          V8N1C6
SRM000000000398          Streich                  Douglas                                           Lakin                    Anais                                             19730124M                02                          V8N1A9
SRM000000000399          Hegmann                  Vidal                                             Schaefer                 Lucienne                                          19620805M                08                          V8N1E4
SRM000000000400          Kemmer                   Zella                                             Abshire                  Josiane                                           19680205F                11                          V8N1H6
SRM000000000401          Kub                      Neil                                              Rolfson                  Sterling                                          19621103F                06                          V8N1E4
SRM000000000402          Flatley                  Marques                                           Schinner                 Misty                                             19871114F                12                          V8N1H9
SRM000000000403          Labadie                  Katrine                                           Kuhn                     Elza                                              20001209F                12                          V8N1A7
SRM000000000404          Dietrich                 Mack                                              Kutch                    Alena                                             19880520M                09                          V8N1G4
SRM000000000405          Dooley                   Candelario                                        Pfeffer                  Faye                                              20011106M                04                          V8N1H5
SRM000000000406          Wiegand                  Keaton                                            VonRueden                Gaetano                                           19790809M                10                          V8N0B1
SRM000000000407          Schultz                  Velva                                             Frami                    Michel                                            19620514F                GA                          V8N0B2
SRM000000000408          Smith                    Elisabeth                                         Shanahan                 Beulah                                            20010109F                02                          V8N1H5
SRM000000000409          Ankunding                Cortney                                           Johnston                 Germaine                                          19620104M                11                          V8N0B4
SRM000000000410          Bayer                    Agustin                                           Osinski                  Nicklaus                                          19861124F                07                          V8N1L3
SRM000000000411          Conroy                   Joaquin                                           Sipes                    Lorna                                             19611107M                07                          V8N1H2
SRM000000000412          Prosacco                 Vernon                                            Hansen                   Rusty                                             19830702F                08                          V8N1A2
SRM000000000413          Schmidt                  Golda                                             Smitham                  Rowland                                           19551227F                09                          V8N1E1
SRM000000000414          Luettgen                 Eloise                                            Breitenberg              Nyasia                                            19581111F                SU                          V8N0A8
SRM000000000415          Klocko                   Brandy                                            McKenzie                 Elizabeth                                         19550517F                02                          V8N0B3
SRM000000000416          Ortiz                    Reagan                                            Lehner                   Howell                                            19610823M                12                          V8N0B1
SRM000000000417          Hickle                   Winfield                                          Kuvalis                  Reva                                              19620728F                07                          V8N1J5
SRM000000000418          Prosacco                 Vita                                              Stanton                  Martin                                            19990119F                11                          V8N1E6
SRM000000000419          Dibbert                  Albina                                            Simonis                  Berenice                                          19680629M                04                          V8N0B1
SRM000000000420          Daniel                   Peggie                                            Jacobson                 Nella                                             19921204F                05                          V8N0A9
SRM000000000421          Graham                   Mayra                                             Altenwerth               Omari                                             19770825M                01                          V8N1A2
SRM000000000422          Orn                      Bill                                              Watsica                  Omer                                              20011108M                11                          V8N0A7
SRM000000000423          Schaefer                 Jacques                                           Krajcik                  Mozelle                                           19741202M                01                          V8N1C5
SRM000000000424          Okuneva                  Franz                                             Anderson                 Jana                                              19970128F                09                          V8N1B6
