FFI61610518ABCEDEFG Elementary                     20200707abcdef@gmail.com                                                                                   2504779616School Contact                            
SRM000000000001          Nader                    Nickolas                                          Ryan                     Jacques                                           19720820M                09                          V8N1H8
SRM000000000002          Stamm                    Richmond                                          Kuhlman                  Gregory                                           19860428M                GA                          V8N1B4
SRM000000000003          Fritsch                  Yvonne                                            White                    Jules                                             19871209F                06                          V8N0A9
SRM000000000004          Hickle                   Arnold                                            Huels                    Junius                                            19930411F                09                          V8N1C4
SRM000000000005          Bartell                  Dedrick                                           O'Hara                   Xavier                                            19711011F                03                          V8N1B9
SRM000000000006          Vandervort               Eunice                                            Walker                   Florencio                                         19690809M                03                          V8N1G6
SRM000000000007          Graham                   Piper                                             Klein                    Bernie                                            19960828M                10                          V8N1G5
SRM000000000008          Russel                   Mathilde                                          Mitchell                 Garry                                             19701205F                08                          V8N1B6
SRM000000000009          Hettinger                Watson                                            Volkman                  Chelsie                                           19610707M                11                          V8N1A1
SRM000000000010          Satterfield              Kyla                                              Williamson               Justen                                            19650327M                02                          V8N1A2
SRM000000000011          Beatty                   Melvin                                            Lockman                  Jeramy                                            19690330M                03                          V8N1G8
SRM000000000012          Bauch                    Percival                                          Klein                    Laurianne                                         19780501M                11                          V8N1G2
SRM000000000013          Cassin                   Joesph                                            Hyatt                    Jaycee                                            19740930M                01                          V8N1L2
SRM000000000014          Crist                    Alexie                                            Flatley                  Eladio                                            19780308F                09                          V8N0A1
SRM000000000015          Collier                  Reece                                             Cummings                 Lesley                                            19910313M                SU                          V8N1A6
SRM000000000016          Cronin                   Christop                                          Gutmann                  Clarabelle                                        19550901M                01                          V8N1E2
SRM000000000017          Prosacco                 Theodore                                          Krajcik                  Velda                                             19861025M                12                          V8N0B4
SRM000000000018          Luettgen                 Ressie                                            Hintz                    Samara                                            19830520F                08                          V8N1A1
SRM000000000019          Hilll                    Cleta                                             Brown                    Gregorio                                          20001231F                SU                          V8N1E6
SRM000000000020          McDermott                Marjolaine                                        Dicki                    Emmanuelle                                        19880411M                07                          V8N1A3
SRM000000000021          Hand                     Uriel                                             Hegmann                  Lurline                                           20010219F                06                          V8N0A7
SRM000000000022          Morissette               Lavonne                                           Sporer                   Rubye                                             19961020F                09                          V8N1C8
SRM000000000023          Schneider                Jamar                                             Armstrong                Maddison                                          19681117F                10                          V8N0A1
SRM000000000024          Sporer                   Gertrude                                          Volkman                  Kaitlyn                                           19840131M                10                          V8N1C6
SRM000000000025          Towne                    Elenor                                            Fisher                   Danyka                                            19991016F                09                          V8N1H5
SRM000000000026          O'Keefe                  Jazmin                                            Swaniawski               Nico                                              19920110M                03                          V8N1C9
SRM000000000027          Tremblay                 Amaya                                             Schultz                  Jayce                                             19830908F                03                          V8N1B8
SRM000000000028          Lakin                    Madisen                                           Wiza                     Levi                                              19740523M                10                          V8N0A7
SRM000000000029          Reichel                  Shanon                                            Osinski                  Dallas                                            19900616M                06                          V8N0A5
SRM000000000030          Hills                    Libby                                             Gulgowski                Tomas                                             19920825M                11                          V8N0B3
BTR30    Vendor Name                                                                                         Product Name                                                                                        Product ID     