FFI66510518ABCEDEFG Elementary                     20200707abcdef@gmail.com                                                                                   2504779616School Contact                             
SRM000000000001          Nader                    Nickolas                                          Ryan                     Jacques                                           19720820M                09                          V8N1H8
SRM000000000002          Stamm                    Richmond                                          Kuhlman                  Gregory                                           19860428M                GA                          V8N1B4
SRM000000000003          Fritsch                  Yvonne                                            White                    Jules                                             19871209F                06                          V8N0A9
SRM000000000004          Hickle                   Arnold                                            Huels                    Junius                                            19930411F                09                          V8N1C4
SRM000000000005          Bartell                  Dedrick                                           O'Hara                   Xavier                                            19711011F                03                          V8N1B9
BTR05        Vendor Name                                                                                          Product Name                                                                                        Product ID