FFI61610518ABCEDEFG Elementary                     20200707abcdef@gmail.com                                                                                   2504779616School Contact                             
SRM000000000001          Nader                    Nickolas                                          Ryan                     Jacques                                           19720820M                09                          V8N1H8 
SRM000000000002          Stamm                    Richmond                                          Kuhlman                  Gregory                                           19860428M                GA                          V8N1B4 
SRM000000000003          Fritsch                  Yvonne                                            White                    Jules                                             19871209F                06                          V8N0A9 
SRM000000000004          Hickle                   Arnold                                            Huels                    Junius                                            19930411F                09                          V8N1C4 
SRM000000000005          Bartell                  Dedrick                                           O'Hara                   Xavier                                            19711011F                03                          V8N1B9 
SRM000000000006          Vandervort               Eunice                                            Walker                   Florencio                                         19690809M                03                          V8N1G6 
SRM000000000007          Graham                   Piper                                             Klein                    Bernie                                            19960828M                10                          V8N1G5 
SRM000000000008          Russel                   Mathilde                                          Mitchell                 Garry                                             19701205F                08                          V8N1B6 
SRM000000000009          Hettinger                Watson                                            Volkman                  Chelsie                                           19610707M                11                          V8N1A1 
SRM000000000010          Satterfield              Kyla                                              Williamson               Justen                                            19650327M                02                          V8N1A2 
SRM000000000011          Beatty                   Melvin                                            Lockman                  Jeramy                                            19690330M                03                          V8N1G8 
SRM000000000012          Bauch                    Percival                                          Klein                    Laurianne                                         19780501M                11                          V8N1G2 
SRM000000000013          Cassin                   Joesph                                            Hyatt                    Jaycee                                            19740930M                01                          V8N1L2 
SRM000000000014          Crist                    Alexie                                            Flatley                  Eladio                                            19780308F                09                          V8N0A1 
SRM000000000015          Collier                  Reece                                             Cummings                 Lesley                                            19910313M                SU                          V8N1A6 
SRM000000000016          Cronin                   Christop                                          Gutmann                  Clarabelle                                        19550901M                01                          V8N1E2 
SRM000000000017          Prosacco                 Theodore                                          Krajcik                  Velda                                             19861025M                12                          V8N0B4 
SRM000000000018          Luettgen                 Ressie                                            Hintz                    Samara                                            19830520F                08                          V8N1A1 
SRM000000000019          Hilll                    Cleta                                             Brown                    Gregorio                                          20001231F                SU                          V8N1E6 
SRM000000000020          McDermott                Marjolaine                                        Dicki                    Emmanuelle                                        19880411M                07                          V8N1A3 
SRM000000000021          Hand                     Uriel                                             Hegmann                  Lurline                                           20010219F                06                          V8N0A7 
SRM000000000022          Morissette               Lavonne                                           Sporer                   Rubye                                             19961020F                09                          V8N1C8 
SRM000000000023          Schneider                Jamar                                             Armstrong                Maddison                                          19681117F                10                          V8N0A1 
SRM000000000024          Sporer                   Gertrude                                          Volkman                  Kaitlyn                                           19840131M                10                          V8N1C6 
SRM000000000025          Towne                    Elenor                                            Fisher                   Danyka                                            19991016F                09                          V8N1H5 
SRM000000000026          O'Keefe                  Jazmin                                            Swaniawski               Nico                                              19920110M                03                          V8N1C9 
SRM000000000027          Tremblay                 Amaya                                             Schultz                  Jayce                                             19830908F                03                          V8N1B8 
SRM000000000028          Lakin                    Madisen                                           Wiza                     Levi                                              19740523M                10                          V8N0A7 
SRM000000000029          Reichel                  Shanon                                            Osinski                  Dallas                                            19900616M                06                          V8N0A5 
SRM000000000030          Hills                    Libby                                             Gulgowski                Tomas                                             19920825M                11                          V8N0B3 
SRM000000000031          Jacobson                 Wilfredo                                          Mann                     Clement                                           19951005M                05                          V8N0B6 
SRM000000000032          Lang                     Deron                                             Bednar                   Corine                                            19941003M                11                          V8N1C6 
SRM000000000033          Armstrong                Luz                                               Hills                    Sofia                                             19711209F                04                          V8N1H1 
SRM000000000034          Yundt                    Josefa                                            Wintheiser               Lila                                              19890918M                11                          V8N1K3 
SRM000000000035          Heaney                   Edwardo                                           Nienow                   Ariel                                             19660306F                05                          V8N1A1 
SRM000000000036          Halvorson                Aida                                              Abbott                   Jonathan                                          19780529M                08                          V8N1C1 
SRM000000000037          Wisozk                   Talia                                             Armstrong                Columbus                                          19900404F                12                          V8N1B3 
SRM000000000038          O'Connell                Serena                                            King                     Sadye                                             19871207F                05                          V8N0A5 
SRM000000000039          Jerde                    Brandy                                            Schamberger              Gaetano                                           19650106M                SU                          V8N0B4 
SRM000000000040          Hessel                   Samanta                                           Aufderhar                Deanna                                            19670607F                08                          V8N1C6 
SRM000000000041          Witting                  Oran                                              O'Kon                    Letitia                                           19591230F                09                          V8N1B8 
SRM000000000042          Hirthe                   Favian                                            Kerluke                  Angelica                                          19730714M                GA                          V8N1A3 
SRM000000000043          O'Conner                 Rachael                                           Walker                   Chad                                              19591117F                07                          V8N1K3 
SRM000000000044          Waelchi                  Khalil                                            McKenzie                 Edwina                                            19580204F                04                          V8N1A9 
SRM000000000045          Robel                    Jarrell                                           Hamill                   Shana                                             19810417F                GA                          V8N1J2 
SRM000000000046          Koch                     Rhiannon                                          Hansen                   Taurean                                           19710103M                12                          V8N0B5 
SRM000000000047          Casper                   Gerry                                             Welch                    Lucas                                             19790330M                03                          V8N1H8 
SRM000000000048          Sauer                    Evelyn                                            Bernier                  Mckayla                                           19770115F                02                          V8N1H1 
SRM000000000049          Von                      Rico                                              Nikolaus                 Franz                                             19930914M                08                          V8N1B9 
SRM000000000050          Bosco                    Toby                                              Cronin                   Pinkie                                            19920215M                GA                          V8N1E2 
SRM000000000051          Christiansen             Ashleigh                                          Bartell                  Nellie                                            19760506F                08                          V8N1A3 
SRM000000000052          Yundt                    Franz                                             Murazik                  Samantha                                          20020225F                05                          V8N1J3 
SRM000000000053          Corwin                   Bette                                             Quigley                  Barrett                                           19781124F                06                          V8N1K1 
SRM000000000054          Predovic                 Willard                                           Kemmer                   Abigayle                                          19860208F                GA                          V8N1A5 
SRM000000000055          Weissnat                 Maryjane                                          Hand                     Linnie                                            19950603F                10                          V8N1B6 
SRM000000000056          Bogan                    Otto                                              Boehm                    Amparo                                            19570428F                02                          V8N1K4 
SRM000000000057          Murazik                  Khalil                                            Schmeler                 Rosetta                                           19550921F                03                          V8N1B6 
SRM000000000058          Becker                   Raul                                              Anderson                 Edward                                            19620323F                10                          V8N1A6 
SRM000000000059          Stanton                  Antonetta                                         Nienow                   Joe                                               19590520F                03                          V8N1B9 
SRM000000000060          Denesik                  Alessandro                                        Zboncak                  Linnea                                            19730519M                06                          V8N1C8 
SRM000000000061          Wisozk                   Reymundo                                          Casper                   Clotilde                                          19961214F                04                          V8N1C1 
SRM000000000062          Huel                     Elinore                                           Roberts                  Baylee                                            19850421F                03                          V8N1H3 
SRM000000000063          Bergnaum                 Audreanne                                         Jacobs                   Hyman                                             19960612M                02                          V8N1H6 
SRM000000000064          Schultz                  Angelina                                          Reichert                 Emmett                                            19900117F                05                          V8N1K3 
SRM000000000065          Krajcik                  Rosella                                           VonRueden                Kattie                                            19791031M                11                          V8N1E9 
SRM000000000066          Goldner                  Maribel                                           Hermann                  Dock                                              19751126F                09                          V8N1A1 
SRM000000000067          Doyle                    Ruthe                                             Boyle                    Alene                                             19580615F                03                          V8N1A6 
SRM000000000068          Rohan                    Gregorio                                          Becker                   Braulio                                           19681110F                08                          V8N1E5 
SRM000000000069          Hagenes                  Forrest                                           Rogahn                   Bennett                                           19941001F                09                          V8N1J3 
SRM000000000070          Emard                    Andre                                             Pacocha                  Katheryn                                          19871229F                03                          V8N1J6 
SRM000000000071          Reichel                  Estella                                           O'Reilly                 Antonetta                                         19671210F                09                          V8N0B4 
SRM000000000072          Leannon                  Tom                                               Hand                     Kailyn                                            19770515F                10                          V8N1B6 
SRM000000000073          Nicolas                  Alexandria                                        Hodkiewicz               Shea                                              19910924M                09                          V8N1J3 
SRM000000000074          Spinka                   Kurt                                              Sauer                    Greyson                                           19870828F                09                          V8N1B3 
SRM000000000075          Mueller                  Sedrick                                           McCullough               Uriah                                             19820614F                05                          V8N1A9 
SRM000000000076          Collins                  Aubrey                                            Rutherford               Elyssa                                            19590314F                GA                          V8N0A9 
SRM000000000077          Olson                    Stuart                                            Ward                     Pearline                                          19850605M                SU                          V8N1J2 
SRM000000000078          Farrell                  Alexandra                                         Boyer                    Andreanne                                         19770808F                01                          V8N1B9 
SRM000000000079          Sporer                   Arthur                                            Emard                    Joanne                                            19631029F                03                          V8N1J1 
SRM000000000080          McGlynn                  Antonetta                                         Hilll                    Elizabeth                                         20010425M                09                          V8N0B7 
SRM000000000081          Nienow                   Pamela                                            Olson                    Ardella                                           19700329F                04                          V8N1J4 
SRM000000000082          Considine                Samson                                            Kozey                    Merl                                              19870328F                07                          V8N1E8 
SRM000000000083          Kuphal                   Reilly                                            Jacobs                   Lauriane                                          19741017F                10                          V8N1J4 
SRM000000000084          Grant                    Grover                                            McDermott                Grayce                                            19990909F                10                          V8N1G3 
SRM000000000085          Terry                    Bartholome                                        Christiansen             Alda                                              20000207F                03                          V8N1J8 
SRM000000000086          Hilpert                  Abbie                                             Reynolds                 Jayme                                             19960308M                03                          V8N1A7 
SRM000000000087          Parker                   Scotty                                            Dach                     Devyn                                             19580215F                06                          V8N1B8 
SRM000000000088          Cronin                   Marley                                            Wisoky                   Oswaldo                                           19871026M                03                          V8N1E3 
SRM000000000089          Wunsch                   Cielo                                             Daugherty                Camila                                            19680322M                09                          V8N0A8 
SRM000000000090          McKenzie                 Miller                                            D'Amore                  Stephon                                           19560329F                04                          V8N1A4 
SRM000000000091          Weimann                  Braden                                            Sipes                    Morris                                            19710504M                12                          V8N0A6 
SRM000000000092          Ferry                    Karianne                                          Boyle                    Darryl                                            19851011M                08                          V8N0A7 
SRM000000000093          Emard                    Ward                                              Shanahan                 Jordi                                             19800729M                09                          V8N1B7 
SRM000000000094          Glover                   Herman                                            McGlynn                  Gia                                               19911104F                08                          V8N1H3 
SRM000000000095          Lakin                    Orin                                              Howell                   Nettie                                            20000823M                12                          V8N1E8 
SRM000000000096          Borer                    Lupe                                              Satterfield              Loy                                               19660402M                07                          V8N1E2 
SRM000000000097          Mertz                    Ted                                               Jacobson                 Daren                                             19770408M                02                          V8N1B9 
SRM000000000098          Erdman                   Abigayle                                          Harvey                   Baby                                              19740321F                05                          V8N1H1 
SRM000000000099          Wiza                     Howard                                            Mills                    Telly                                             19611030F                SU                          V8N1K2 
SRM000000000100          Trantow                  Theodora                                          Heidenreich              Kaelyn                                            19870922F                08                          V8N0B7 
BTR100     Vendor Name                                                                                         Product Name                                                                                        Product ID   