FFI61610518ABCEDEFG Elementary                     20200707abcdef@gmail.com                                                                                   2504779616School Contact                            
SRM000000000001          Nader                    Nickolas                                          Ryan                     Jacques                                           19720820M                09                          V8N1H8
SRM000000000002          Stamm                    Richmond                                          Kuhlman                  Gregory                                           19860428M                GA                          V8N1B4
SRM000000000003          Fritsch                  Yvonne                                            White                    Jules                                             19871209F                06                          V8N0A9
SRM000000000004          Hickle                   Arnold                                            Huels                    Junius                                            19930411F                09                          V8N1C4
SRM000000000005          Bartell                  Dedrick                                           O'Hara                   Xavier                                            19711011F                03                          V8N1B9
XYZ000000000006          Vandervort               Eunice                                            Walker                   Florencio                                         19690809M                03                          V8N1G6
SRM000000000007          Graham                   Piper                                             Klein                    Bernie                                            19960828M                10                          V8N1G5
SRM000000000008          Russel                   Mathilde                                          Mitchell                 Garry                                             19701205F                08                          V8N1B6
SRM000000000009          Hettinger                Watson                                            Volkman                  Chelsie                                           19610707M                11                          V8N1A1
SRM000000000010          Satterfield              Kyla                                              Williamson               Justen                                            19650327M                02                          V8N1A2
BTR10         Vendor Name                                  Product Name                                   Product ID                                                                                                            